:100000000C94D5010C94C3090C941C020C941C0292
:100010000C941C020C941C020C941C020C941C02E8
:100020000C941C020C941C020C94341C0C94061DA1
:100030000C942E170C941C020C941C020C941C02A1
:100040000C941C020C941C020C941C020C941C02B8
:100050000C941C020C9487170C941C020C941C0228
:100060000C941C020C941C020C941C020C941C0298
:100070000C941C020C941C020C941C020C941C0288
:100080000C941C020C941C020C941C020C941C0278
:100090000C941C020C941C020C941C020C941C0268
:1000A0000C941C020C941C020C941C02220D220DB8
:1000B000540D540DA10DD50ED50ED50EBF0D540EF9
:1000C000650E650EC50ED50ED50ECE0E710F710FD5
:1000D000830F830F7A0F830F830F830F710F710FBD
:1000E0007F0F830F830F7F0F731D9A1D921E9A1D22
:1000F000921EE61D091E921E601E6F1E2B0014002C
:100100001A000800150017001700E442040016004A
:10011000070009000A000500E1001D001D001B008A
:10012000060019002C003500E300E200E200E400C4
:100130002C004C002A00130012000C0018001C00B8
:100140001700280033000F000E000D000B00050003
:10015000290038003700360010001100344131000A
:100160001441300030002F0034412A0035001E02B7
:100170001F022002210222022D0235021E001F0052
:100180002000210022002300E1002300240025009C
:10019000260027002C00E000E300E20035040151B6
:1001A0002C004C00310227022602250224022302E1
:1001B0002E022A002D0027002600250024003002F0
:1001C000E5002E00370236021000290028004D00FD
:1001D0004B004E004A00035128002A0035001E0241
:1001E0001F022002210222022D0235023A003B00AA
:1001F00007113D002D002F02E1003F0040004100AB
:10020000420043002C00E000440045003504035147
:100210002C004C003102270212010C01181123029C
:100220002E02340233024F005200510050003002BF
:10023000E5003802370236021000290028004D0080
:100240004B004E004A00025128002A000100005CC9
:10025000C35CC45CC75CC65C010001000100C05CFB
:10026000C25CBF5CBE5C0100010001000100010036
:100270000100010001000100010001000100010076
:100280000100010001000100CA5CCB5CC85CC95CD4
:100290000100010001000100010001000100010056
:1002A0000100010001000100010001000100010046
:1002B0000100010001000100010001001A034500D6
:1002C000720067006F0044006100730068006D00F9
:1002D00069006E00690000000C034F006D006B00A8
:1002E0006200640000000403090409023B000201EB
:1002F00000A0FA0904000001030101000921110115
:1003000000012240000705810308000A09040100DA
:10031000010300000009211101000122320007053C
:10032000820320000A1201100100000008EDFE60A7
:100330006000010102000105010980A10185031986
:10034000012AB700150126B700950175108100C07C
:10035000050C0901A101850419012AA00215012635
:10036000A002950175108100C005010906A10105D3
:100370000719E029E7150025019508750181029507
:1003800001750881010507190029FF150026FF00E6
:10039000950675088100050819012905950575015F
:1003A0009102950175039101C00011241FBECFEF8A
:1003B000DAE0DEBFCDBF04B603FE27C080915B024A
:1003C00090915C02A0915D02B0915E028730904BEB
:1003D000A740B04BD1F410925B0210925C021092D5
:1003E0005D0210925E0214BE84B7877F84BF0FB691
:1003F000F894A895809160008861809360001092C5
:1004000060000FBEE0E0F8E3099511E0A0E0B1E084
:10041000E0E2FEE302C005900D92A838B107D9F7DB
:1004200022E0A8E8B1E001C01D92AB35B207E1F7C8
:100430000E946C190C940E1F0C94000081E008952A
:1004400081E008950C94200208950C9424021F93D7
:10045000CF93DF9300D000D01F92CDB7DEB7498392
:100460005A836B833091B50189819A81311114C00F
:10047000662359F0222349F00E94AA14182F682FEE
:1004800089819A810E94531403C00E947E14182F00
:1004900069817A81812F04C00E94AA1469817A81BE
:1004A0000F900F900F900F900F90DF91CF911F91B1
:1004B0000C94D902FC01262F408151816281738105
:1004C00084810C942702CF93DF93EC0160E00E94BB
:1004D0005A02BE01DF91CF910C9425020E94DE15D5
:1004E000811102C00E9485160C94F3040C94EF0451
:1004F00008950E945F0F0E9478022FEF84E39CE032
:10050000215080409040E1F700C000000C94EE17AD
:100510000F931F93CF93DF93EC0161E00E945A0287
:100520008C01BE010E942202882349F1BE01C8014C
:100530000E941807882319F1BE01C8010E946A07AA
:100540008823E9F0BE01C8010E9495088823B9F00C
:100550008A81882369F001158CE5180731F00F3D79
:100560001C4531F40E9485160AC00E94790207C01A
:10057000CE01DF91CF911F910F910C941E0280E06C
:10058000DF91CF911F910F91089508950C94C502AA
:1005900081E008950C94C802CF93C82F0E94C60230
:1005A0008C2F0E94CA02CF91089580E090E00895B8
:1005B000089528E3829FC0011124FC0127E0729F67
:1005C000E00DF11D1124E60FF11DEE0FFF1FE450A9
:1005D000FF4F859194910895880F991FFC01E45471
:1005E000FD4F859194910895CF93DF930E94D90296
:1005F0000E940604EC018115904508F043C0C11526
:1006000080E4D80708F0CBC0C03ED10528F5C03C37
:10061000D10508F0B3C0C83AD10578F4C53AD10580
:1006200008F0A4C0C130D10509F4ECC008F4E8C05A
:10063000C430D10508F0E6C0E3C0CF3BD10508F0D7
:10064000DFC0C85AD0E0CC0FDD1FCA5EDE4F099074
:10065000D881C02DD464D6C0C11590E2D90750F41A
:10066000C11521E0D20708F0CDC0C83ED10508F47D
:10067000C9C0C6C0C11580E3D80708F086C0CE0146
:100680009F707FC0C11595E5D90708F043C0C1151B
:1006900024E5D20708F09AC0C11582E5D80708F50D
:1006A000C11591E5D90708F07DC0CE0174E096959B
:1006B00087957A95E1F783709C2F937021E030E065
:1006C00002C0220F331F9A95E2F73C68382BCF7097
:1006D000C695C69580E2C89FE0011124C22BD32B9A
:1006E00091C09E01237033278C2F86958695C11566
:1006F000D34508F05CC0C1E0D0E002C0CC0FDD1FE4
:100700002A95E2F720E2829FC0011124C82BD92B41
:10071000DC6878C0C11529E5D207A0F4C11588E5C9
:10072000D80708F058C0C11596E5D90708F068C089
:100730008C2F0E949A048F71C82FD0E0DC2FCC2719
:10074000D06260C0C1152AE5D20708F449C0CE01C5
:1007500090568115904208F053C08D2F8F710E94E2
:100760009A04DD27D0628F71D82B4CC0C55AD0E0D7
:10077000CC5BDE4FC881D0E0D06444C0CE01805C49
:1007800091090E94EC02EC013DC0CE019927D3FFF4
:1007900003C0EC01D86C36C0EC01D06C33C0DF7004
:1007A000D06A30C0DC2FCC27C16FD06A2BC0C1E02B
:1007B000D0E002C0CC0FDD1F2A95E2F720E2829F35
:1007C000C0011124C82BD92BDA681CC0DC2FCC2720
:1007D000C46FD06A17C0DC2FCC27C06FD06A12C09C
:1007E0008C2F8F700E949A0494E0D695C7959A95A5
:1007F000E1F7CF70D0E0DC2FCC27D069C82B02C046
:10080000C0E0D0E0CE01DF91CF910895823891050C
:1008100069F1B0F48133910509F46DC048F489326F
:10082000910509F463C08A32910509F469C00895FD
:100830008533910509F455C089339105B9F00895C0
:10084000833E910569F138F4803E9105B1F0823E16
:10085000910509F10895863E9105A9F1873E91051C
:10086000B9F1843E910509F064C023C020914C0287
:1008700020FD4FC021FD4DC0089580914C0280FDA8
:1008800044C080914D0280FF44C080914C0284FDA1
:1008900042C083EE4DC080914C0282FF38C0F5CF3C
:1008A00080914C0282FD33C080914D0280FD31C0A9
:1008B000ECCF80914D0281FF32C080914C0284FDCB
:1008C0002AC087EE35C080914C0283FF26C0F5CF49
:1008D00080914C0283FD21C080914D0281FD1FC09B
:1008E000ECCF80914C0285FD1CC01DC080914C0254
:1008F00085FD19C016C080914C0286FD16C017C038
:1009000080914C0286FD13C010C089E311C082EEB5
:100910000FC080EE0DC080E00BC086EE09C084EEF3
:1009200007C089E205C085E303C08AE201C081E314
:1009300090E0089590914C0292FF0DC0282F2871ED
:10094000283019F4877F846006C0282F2471243052
:1009500011F48B7F886093FF0DC0282F28712831F8
:1009600019F4877E846106C0282F2471243111F484
:100970008B7E886120914D0220FF0DC0382F387189
:10098000383019F4877F816006C0382F31713130DB
:1009900011F48E7F886021FF0DC0282F2871283127
:1009A00019F4877E816106C0282F2171213111F44D
:1009B0008E7E886194FD877E0895E82FF0E0E65CE6
:1009C000FD4F80810895089580EA8A95F1F7089592
:1009D00000C008950C94E40408950C94EC040C9465
:1009E000ED040C94EC040C94F104F894E82FE295D7
:1009F000EF70F0E031A1282F2F7081E090E001C06E
:100A0000880F2A95EAF7982F9095932391A392A1A6
:100A1000892B82A37894089508950F931F93CF9301
:100A2000DF930E9494068091000180910001811162
:100A300002C094E001C090E09093430284E0891BDF
:100A40008093420287E90E94F50486EC0E94F50437
:100A500084E30E94F50485E30E94F504C7E4D1E035
:100A60000EE411E089910E94F5040C171D07D1F7DF
:100A7000E2E3F2E0AAE3B2E011921D9282E0EA33EF
:100A8000F807D1F784E00E943E060E946E02DF91D3
:100A9000CF911F910F910C949E061F93CF93DF93DC
:100AA00000D000D0CDB7DEB70E947506609143023A
:100AB000882309F442C019821A821B821C82862F65
:100AC00090E0BE016F5F7F4F865C9D4F0E94D20811
:100AD000811117C080918A018F5F80938A018630CF
:100AE00040F1E0914202F0E0E65CFD4FDE0111963C
:100AF000CE01059611921D92A817B907D9F711E0FA
:100B000019C010928A01E0914202F0E0E65CFD4FCC
:100B1000DE0111969E012B5F3F4F10E08D91908179
:100B2000981711F0808311E03196A217B307B1F73F
:100B300001C010E00E9476020DC070E0665C7D4F3F
:100B40008091420290E0865C9D4F0E94FC080E94CA
:100B50000C0510E0812F0F900F900F900F90DF91F8
:100B6000CF911F9108958F929F92AF92BF92CF9293
:100B7000DF92EF92FF920F931F93CF93DF938EE458
:100B8000A82E81E0B82EC2E3D2E092E5E92E91E0F2
:100B9000F92E912C01E010E06501F5018081F894B7
:100BA000E82FE295EF70F0E021A18F70A80102C05C
:100BB000440F551F8A95E2F7CA01922F982B91A3F3
:100BC00092A18095892382A378940E94E804E7E4A7
:100BD000F1E020E030E0812C4191A42FA295AF708C
:100BE000B0E090968C9190E04F7002C095958795FB
:100BF0004A95E2F780FD07C0802F022E01C0880FC2
:100C00000A94EAF701C080E0882A2F5F3F4F27301F
:100C1000310511F75FEFA51AB50AF60180810E9430
:100C2000F5040E94EA048881881619F0888281E020
:100C300001C080E0982A2196EA14FB0409F0ACCFA9
:100C40006091430270E0665C7D4F292D44E082E3B1
:100C500092E00E943F060E944D05992011F081E02C
:100C600090E0DF91CF911F910F91FF90EF90DF9077
:100C7000CF90BF90AF909F908F9008950895FF926E
:100C80000F931F93CF93DF938C01F62ED72FC42F92
:100C9000222349F081E080938D010E946017909398
:100CA0008C0180938B0180918D018823C1F080910C
:100CB0008B0190918C010E947817069780F0EF2DA0
:100CC000FD2FD8014C2F50E0CD01801B910B8417D4
:100CD00095071CF48D918193F7CF10928D01DF91D0
:100CE000CF911F910F91FF90089580918E018111F6
:100CF00012C08091D80080618093D8008AE18A95E3
:100D0000F1F700C08091D90080FD02C082E001C0EF
:100D100081E080938E0181E090918E01913009F005
:100D200080E008950C9475060E949206809300015D
:100D30000E94750681110C94C60808950E947506DC
:100D4000811102C00C94CC0808950F931F93CF9388
:100D5000DF93C42FD22FFC0182818823C9F04093F6
:100D600091010E9460179093900180938F0180E21F
:100D70008C0F883008F057C0C77081E001C0880F21
:100D8000CA95EAF7DF91CF911F910F910C94E10C76
:100D900080919101481330C080918F019091900112
:100DA0000E9478178837910538F510E21D0FCD178E
:100DB000B9F080E28C0F883040F4C77081E001C048
:100DC000880FCA95EAF70E94E80C183028F581E0F0
:100DD0009D2F977001C0880F9A95EAF70E94E10C49
:100DE000802F0E94D80C1830F0F4D77081E001C039
:100DF000880FDA95EAF70AC080E28C0F883098F401
:100E0000C77081E001C0880FCA95EAF7DF91CF91E2
:100E10001F910F910C94E80C802FDF91CF911F91BF
:100E20000F910C94D80CDF91CF911F910F910895E1
:100E30000F939C01CB01243F4CE5340731F188F43A
:100E4000293DFCE53F07D9F02A3D4CE5340779F10F
:100E5000283D3C45A9F506E221EE41EE68ED7CE532
:100E60002BC0263FFCE53F07E1F0A8F0273F3C45BB
:100E700039F507E225EE46EE67EF7CE51DC007E297
:100E800025EE45EE69ED7CE517C006E221EE40EE69
:100E900064EF7CE511C007E225EE44EE65EF7CE5EA
:100EA0000BC006E221EE42EE66EF7CE505C008E2EB
:100EB00021E045EE6AED7CE50E94A50680E008C0D1
:100EC000FC018281882319F01092910101C081E018
:100ED0000F910895CF93DF93EC01FB01828188236A
:100EE00009F41FC1C230FCE5DF0708F41BC1C6319D
:100EF0009CE5D90738F09E012B5F3C452930310530
:100F000008F010C10E94F11590934D0280934C029D
:100F1000C031ECE5DE0709F4C3C008F041C0C830B9
:100F20008CE5D80709F49AC0F0F4C430ECE5DE078C
:100F300009F487C068F4C2308CE5D80709F477C09B
:100F4000C330DC4509F0E3C080914C02826076C07A
:100F5000C630ECE5DE0709F46EC008F07BC0809176
:100F60004C0288606BC0CC308CE5D80709F485C092
:100F700068F4CA30ECE5DE0709F474C008F079C003
:100F80000E945F0F80914C02806858C0CE308CE583
:100F9000D80709F476C008F07FC080914C028BC05E
:100FA000CC3FECE5DE0709F44FC018F5C3318CE502
:100FB000D80709F47DC078F4C131ECE5DE0709F407
:100FC00073C0C231DC4509F0A2C00E945F0F80915E
:100FD0004C028F7733C0C5318CE5D80709F472C055
:100FE00008F486C0CB3FDC4509F091C080914D02EA
:100FF0003EC0C115FDE5DF0709F45FC058F4CE3FE0
:101000009CE5D90709F444C008F43FC080914D0223
:1010100082602DC0C230FDE5DF0709F475C008F419
:101020005DC0C330DD4509F072C080E06EC08091C4
:101030004C02816003C080914C02806180934C021D
:1010400066C080914C0211C080914D0282608093F5
:101050004D025DC080914C028062F0CF80914C02C5
:101060008064ECCF80914C0288608460E7CF81601F
:10107000EECF80914C028E7FE1CF80914C028D7F2C
:10108000DDCF80914C02877FD9CF80914D0218C06F
:1010900080914D028D7FDBCF80914C028F7ECECF31
:1010A00080914C028F7DCACF80914C028F7BC6CF3E
:1010B00080914C02877F8B7FC1CF80914D028D7FC5
:1010C0008E7FC5CF80914C0282FB222720F991E0D0
:1010D000922790FB82F990FB83F9B0CF80914D026B
:1010E000982F909591708E7F892B90FB81F9AFCFCF
:1010F0000E945F0F80914C0287FB222720F991E02C
:10110000922790FB87F99ACF81E00E948716809101
:101110004C0290914D020E9402160E945F0F80E0E7
:1011200001C081E0DF91CF910895CF93DF938631A5
:101130009C4541F5EB010E942B15982F8A81209147
:10114000090130910A01882379F09A7A81E009F443
:1011500080E080939201911102C069E201C065E3D1
:10116000C9010E94CE160AC080919201811102C06D
:1011700069E201C065E3C9010E94D0160E94791599
:1011800080E001C081E0DF91CF91089561E070E0DF
:1011900081E091E00C94750961E070E081E091E0FC
:1011A0000C947C09CF93DF93D62FC72F0E94140A8B
:1011B000892BF1F4ED2FFC2F80E090E0DC01A856A4
:1011C000BE4F2C912193019684309105B9F70E946E
:1011D000D317DC01CB010296A11DB11D80939401B0
:1011E00090939501A0939601B093970181E001C07F
:1011F00080E0DF91CF910895CF93DF93D62FC72F53
:101200006091940170919501809196019091970160
:101210000E94B617ED2FFC2F80E090E02191DC01B9
:10122000A856BE4F2C93019684309105B9F7DF91F3
:10123000CF9108958EE1489B02C08150E1F7489B11
:10124000FECF0895589880E28A95F1F7589A08954C
:10125000FC012AE02A95F1F728E090E080E031E0F7
:1012600040E14A95F1F7880F489B02C081609327BF
:1012700000C0000040E14A95F1F7215089F720E1D4
:101280002A95F1F729B100C0000030E13A95F1F755
:10129000217092272081920F90830895EF92FF9200
:1012A0000F931F93CF93DF931F92CDB7DEB71982B1
:1012B0008C017C01E60EF11C0E151F0551F00E94F9
:1012C0001A09CE0101960E942809F80181938F0125
:1012D000F3CF81E09981911180E00F90DF91CF9160
:1012E0001F910F91FF90EF90089590939D0180932F
:1012F0009C01509A589A089590939D0180939C0167
:101300005098589AE89AE9E6F0E080818C7F8083D3
:101310000895615091E001C0990F6A95EAF720E0C5
:1013200031E0992361F0492F482319F0589A232777
:1013300001C0589840E24A95F1F79695F2CF2223E2
:1013400011F0589A01C0589880E28A95F1F75898A0
:101350000895FF920F931F93CF93DF93EC018C01BD
:10136000060F111DC017D10741F0F9900E94220904
:1013700068E08F2D0E948909F5CFDF91CF911F91F1
:101380000F91FF9008951F920F920FB60F921124A4
:101390002F933F934F935F936F937F938F939F937D
:1013A000AF93BF93CF93DF93EF93FF935898509AE7
:1013B000C0919C01D0919D016D81662321F08E81A9
:1013C0009F810E94A9090E94220980E18A95F1F774
:1013D00058985098589A80E18A95F1F76A81662367
:1013E00051F08B819C810E944E09E881F981811125
:1013F00004C082E003C0E881F98188E080830E9414
:101400001A09FF91EF91DF91CF91BF91AF919F9119
:101410008F917F916F915F914F913F912F910F909D
:101420000FBE0F901F901895CF93DF93C0919C0132
:10143000D0919D01F894509A589885E08A95F1F7DB
:1014400000005098589A80E28A95F1F7489B0AC0AC
:10145000509A589AE881F98181E08083789481E0FC
:1014600090E02CC06D81662381F08E819F810E9467
:101470004E0981110AC0509A589AE881F98182E098
:101480008083789482E090E019C00E941A0980E27B
:101490008A95F1F75898509A80E18A95F1F76A8118
:1014A000662321F08B819C810E94A9090E94220958
:1014B000E881F9811082789480E090E0DF91CF910B
:1014C00008959093A3018093A2010895E091A20151
:1014D000F091A301309721F00190F081E02D099463
:1014E00080E00895E091A201F091A301309721F0EE
:1014F0000280F381E02D099408952091A00130919C
:10150000A1012817390771F09093A1018093A001E0
:10151000E091A201F091A301309721F00680F781BC
:10152000E02D0994089520919E0130919F01281784
:10153000390771F090939F0180939E01E091A20181
:10154000F091A301309721F00084F185E02D0994FA
:1015500008950E946C176093B1017093B20180935B
:10156000B3019093B4016093AD017093AE01809389
:10157000AF019093B001089585B7806885BF85B7A6
:10158000806885BF08950C94750608950C94C50A6B
:101590000C94C50A0C94C80A0C94C50A0C94CC0A85
:1015A0000C94C50A0E94BC0A8CED95E10E94FF17BD
:1015B0000E94D00A0C94CE0A0E9457170E94AD17C1
:1015C0000E940D050E9404180C94CA0A9F92AF92C3
:1015D000BF92CF92DF92EF92FF920F931F93CF9320
:1015E000DF93CDB7DEB72A970FB6F894DEBF0FBEF4
:1015F000CDBF0E94C60A0E94C50A0E94B305811190
:101600000E94A90A85EAA82E81E0B82E00E010E029
:10161000902E802F0E94DD04D82EF501C1905F012D
:10162000C826B1F40F5F1F4F0830110589F78FEFFF
:1016300089838A831B820E9460178160782F9D8333
:101640008C8349815A816B818D810E94860B2FC0CA
:101650008091260281FD0E94E304E12CFF24F39493
:101660008C2D8F21F1F00E94C30A882399F0EE821D
:101670009F82DF2081E009F480E088870E94601764
:101680008160782F9A8789874E815F8168858A85F6
:101690000E94860BF801EB55FE4F8081F826F08200
:1016A00006C0E394FF0CF7E0EF12DACFBBCF0E9445
:1016B000660A9091A4018917B9F00E94660A809386
:1016C000A4012A960FB6F894DEBF0FBECDBFDF91FE
:1016D000CF911F910F91FF90EF90DF90CF90BF902F
:1016E000AF909F900C94CC022A960FB6F894DEBF70
:1016F0000FBECDBFDF91CF911F910F91FF90EF9063
:10170000DF90CF90BF90AF909F900895DF92EF92BF
:10171000FF920F931F93CF93DF93CDB7DEB72B9735
:101720000FB6F894DEBF0FBECDBFF42E052F162FD7
:10173000E72ED82E61110E944B15FE01319686E0EE
:10174000DF011D928A95E9F77E2D4F2D502F612FD5
:101750008D2D9E810E9418122B960FB6F894DEBF35
:101760000FBECDBFDF91CF911F910F91FF90EF90F2
:10177000DF900895FC01808191810E94EC1408950E
:10178000CF93882309F49CC0C82F8238C1F40E94EB
:10179000660A81FD95C069E38091090190910A0173
:1017A0000E94CE160E9479152FEF81EE94E0215011
:1017B00080409040E1F700C0000069E319C0833821
:1017C00001F50E94660A80FD7BC063E580910901F6
:1017D00090910A010E94CE160E9479152FEF81EE9A
:1017E00094E0215080409040E1F700C0000063E5A4
:1017F0008091090190910A010E94D016CF910C941A
:1018000079158438C1F40E94660A82FD59C067E4E4
:101810008091090190910A010E94CE160E947915CB
:101820002FEF81EE94E0215080409040E1F700C01E
:10183000000067E4DDCF8CEF8C0F813AD0F46C2F81
:101840008091090190910A010E949816882349F01D
:101850006C2F8091090190910A010E94D0160E947C
:1018600079156C2F8091090190910A010E94CE1682
:10187000C5CF80E28C0F883048F4C77081E001C08A
:10188000880FCA95EAF70E942E15B8CFEBE5EC0F4A
:10189000E33040F4F0E0EC57FE4F808190E0CF91D0
:1018A0000C947D0AC85AC73158F4EC2FF0E0EE0FC3
:1018B000FF1FEA5AFE4F80819181CF910C94930AC9
:1018C000CF910895882309F45BC0682F823879F49A
:1018D0000E94660A81FF54C069E3809109019091DA
:1018E0000A010E94CE160E94791569E310C0833860
:1018F000B1F40E94660A80FF43C063E5809109014C
:1019000090910A010E94CE160E94791563E580919C
:10191000090190910A010E94D0160C94791584381F
:1019200079F40E94660A82FF2BC067E48091090166
:1019300090910A010E94CE160E94791567E4E7CFC4
:101940008CEF860F813A18F380E2860F883048F4D6
:10195000677081E001C0880F6A95EAF70E9434152C
:10196000DCCF8BE5860F833020F480E090E00C9490
:101970007D0A685A673120F480E090E00C94930A65
:1019800008951F93CF93DF93182FEB010E94C00B94
:10199000209741F08FE99FE00197F1F700C0000028
:1019A0002197F6CF812FDF91CF911F910C94620C7C
:1019B000893319F060E070E002C060E570E00C94DB
:1019C000C10C882321F00E942E150C9479150895DE
:1019D000882321F00E9434150C9479150895CF9234
:1019E000DF92EF92FF920F931F93CF93DF937C01CF
:1019F000062FC72FFC01D281158112951F700E94FE
:101A00002415882399F0DD2389F08C2F807F803482
:101A100021F080E2800F883048F082E00E94C315F8
:101A20000E94241591E0D82ED92601C0D12CCC2EAD
:101A3000C2948FE0C8228C2D90E0FC01EA5AFF4F3F
:101A40000C94C61E8C2F807FCF70882311F0C29516
:101A5000C07FDD2399F0CC2309F482C180E2800F9E
:101A6000883010F0011104C08C2F0E942E1503C085
:101A70008C2F0E943E150E94791572C1802F0E9402
:101A8000620CCC2309F491C180E2800F883010F001
:101A9000011104C08C2F0E94341503C08C2F0E94AA
:101AA00044150E94791581C18C2F807FCF708032C0
:101AB00011F0C295C07F002319F00130C9F022C097
:101AC000DD2371F0112341F0113031F40E945E15D5
:101AD0008C2B0E94661569C10E945E158C2B1DC05F
:101AE000112319F0113009F460C10E946F1525C04F
:101AF000DD2321F0163008F058C10EC0153008F073
:101B000054C11BC0DD2361F0112331F0F701858141
:101B100080FF26C18F7085838C2F0E94E10C45C108
:101B2000112359F0093309F02CC1FFEF27EE83E0B0
:101B3000F15020408040E1F722C18C2F0E94E80C38
:101B400034C18C2F86958695837019F0813061F0B1
:101B50002CC1DD2321F0802F9C2F937002C080E0E8
:101B600090E00E947D0A29C1DD2321F0802F9C2F67
:101B7000937002C080E090E00E94930A1EC18C2FF7
:101B8000837009F045C0D11114C1402F429546958C
:101B90004770440F440F602F6F70862F90E0A0E0D5
:101BA000B0E0042E04C0880F991FAA1FBB1F0A941F
:101BB000D2F704FF10C00FE010E020E030E004C0D6
:101BC000000F111F221F331F4A95D2F70095109561
:101BD0002095309503C000E010E09801C695C695A9
:101BE000C370BC01CD01602B712B822B932BC230B3
:101BF00049F058F4C13019F00E946913DAC00E940C
:101C00005713D7C00E947B13D4C00E945513D1C074
:101C1000DD2319F08C2F817001C08695882309F48B
:101C2000C8C0402F429546954770440F440F602F1F
:101C30006F70862F90E0A0E0B0E0042E04C0880F03
:101C4000991FAA1FBB1F0A94D2F704FF10C00FE010
:101C500010E020E030E004C0000F111F221F331FEE
:101C60004A95D2F7009510952095309503C000E075
:101C700010E09801C695C695C370BC01CD01602BDC
:101C8000712B822B932BC23049F058F4C13019F0DC
:101C90000E942E148EC00E941C148BC00E944014FF
:101CA00088C00E948F1385C0CF70DD2339F08C2F40
:101CB0000E94B513802F0E94E10C7BC0802F0E94F0
:101CC000E80C8C2F0E94D61374C0023F01F128F457
:101CD000003F41F0013FA1F03FC0033FF9F0043F56
:101CE00039F13AC0DD2341F0153008F05EC08C2F89
:101CF0008F710E94FB1359C0163008F056C0F7CF01
:101D0000DD2339F08C2F8F710E94B5134EC0DD2377
:101D1000C9F38C2F8F710E94D61347C0DD2329F0A1
:101D20008C2F8F710E94A01340C00E949B133DC056
:101D3000DD2349F0CF718C2F0E94B51363E08C2F07
:101D40000E94AE1532C081E00E94C315123068F1C6
:101D500082E00E94C31529C0DD2331F0112391F2E6
:101D6000802F0E94C00B21C0112399F2093349F43E
:101D70009FEFE7EEF3E09150E040F040E1F700C064
:101D80000000802F0E94620C10C04C2F4F70602FFB
:101D9000C7010E94D5020E94C6120FC04C2F4F707F
:101DA000602FC7010E94D80208C088EF8C0D8430D4
:101DB00020F40E94660A0E94CC02DD20C9F00E9435
:101DC000201580FD15C0F70112820E941A150E948D
:101DD000B513C7010E94190F0E941A15DF91CF9108
:101DE0001F910F91FF90EF90DF90CF900C94D6133E
:101DF000DF91CF911F910F91FF90EF90DF90CF90E7
:101E000008950F931F93CF93DF93EC01688179813D
:101E10008A810E94F7148C010E9452140E9443137D
:101E2000B801CE010E94EF0CDF91CF911F910F916D
:101E30000895CF93DF93EC01988189812B813C81B8
:101E4000232B31F08F3F31F481E09F3F19F403C021
:101E500081E001C080E080FD19C0CE010E948802AF
:101E600081110CC00E942415882381F08A81882367
:101E700069F082E0DF91CF910C94C315CE010E94EE
:101E8000010FCE01DF91CF910C946302DF91CF91CE
:101E9000089580E090E00E947D0A80E090E00E943A
:101EA000930A0E944B150E945B150C947915809142
:101EB000090190910A010E94D2160C94490F0E94C8
:101EC0003B150C94570FE92FE295EF704E2F50E021
:101ED000FA013297EE30F105B0F4EA59FF4F0C9455
:101EE000C61E803F91F018F4883E68F40EC0843F0F
:101EF00051F40BC0883E48F0813F29F406C093FBA3
:101F0000882780F9089580E0089581E008950E946F
:101F1000EC140E94630F0895CF93DF9300D000D09C
:101F20001F92CDB7DEB70F900F900F900F900F90CC
:101F3000DF91CF910895CF93DF9300D000D000D0F0
:101F4000CDB7DEB726960FB6F894DEBF0FBECDBF75
:101F5000DF91CF9108951F93CF93DF93C091B60186
:101F600016E08091B701C81799F0D0E01C9FF001EE
:101F70001D9FF00D1124E854FE4F40815181628174
:101F80007381848195810E949B0F2196C770E9CF50
:101F9000DF91CF911F9108954091E8015091E9019F
:101FA0006091EA017091EB018091EC019091ED015B
:101FB0000C949B0F0F931F93CF93DF938091ED01B0
:101FC00082958F7009F05DC08091EA01882309F441
:101FD00058C08091B6011091B7016091E8017091ED
:101FE000E901C091EB01D091EC0191E06F3F09F064
:101FF00090E0292F06E0811709F443C0209721F0D3
:102000007F3F21F030E003C031E001C0322F90E08B
:1020100030FD34C0089FF001099FF00D1124DF014D
:10202000A854BE4F11963C911197371327C03C918D
:10203000361324C012963C91129731111FC013968B
:102040004D915C9114974C1B5D0B48375105B0F4D2
:102050008091ED018F7080618093ED01E354FE4F1C
:1020600080818F708061808388EE91E00E94190FDB
:10207000DF91CF911F910F910C94AB0F0196877058
:10208000BACFDF91CF911F910F9108959F92AF9298
:10209000BF92CF92DF92EF92FF920F931F93CF9355
:1020A000DF93CDB7DEB761970FB6F894DEBF0FBEF2
:1020B000CDBF8C0185E0F801DE011D9601900D92E7
:1020C0008A95E1F7F80140815181E2809091E80121
:1020D0006091E9012091EB013091EC01211531056E
:1020E00031F06F3F31F481E09F3F19F403C081E08C
:1020F00001C080E0F82FF1709F2E80FD46C1F801ED
:10210000A380B48088EEC82E81E0D82EF090EA013A
:10211000F501E21BF30BFF2009F4DFC08091ED0114
:10212000E837F10508F09BC0282F207F09F052C046
:10213000561313C0491311C0FE2CE1100EC08F704E
:1021400080618093ED010E94CC0FC6010E94190F9F
:102150008091ED01F801858358C1AB2831F05F3FD4
:1021600031F481E04F3F19F403C081E001C080E009
:1021700080FD03C081E08E2502C080E090E0F82F52
:10218000F170FF2E80FF1CC08091B6012091B70135
:1021900036E0821709F417C190E0389FF001399FAB
:1021A000F00D1124E854FE4F6181561306C0608182
:1021B000461303C06281E61203C001968770E9CF1F
:1021C000FE2CEE2009F421C18091ED018160809305
:1021D000ED015AC0561306C0491304C0E11002C0F5
:1021E000F8019FC04D875E878D859E850E94870F71
:1021F000882379F1EE2069F12091ED01822F8295FB
:102200008F7090E0029774F08091E8019091E9015D
:1022100098878F831986BB86AA862C87CE0107965E
:102220000E94190F86E0F801A8EEB1E001900D922E
:102230008A95E1F70E94DA0F0E94CC0F0DC0561765
:1022400029F14D875E878D859E850E94870F8111BC
:102250002CC0C8010E94190FFF24F394D6C0282F68
:10226000207F69F77A2DB98AA88A6E2D89890E9404
:102270008C0F88EE91E00E94190F86E0F601119212
:102280008A95E9F70E94CC0FF12CBFC04913D9CF32
:10229000E110D7CFF8018583C8010E94190F86E0AD
:1022A000F60111928A95E9F7B0C0EE2091F22091E3
:1022B000ED01822F82958F7090E002970CF4B2CFDF
:1022C0008091E8019091E9019A8389831B82BD8204
:1022D000AC822E83CE010196A3CFE837F10508F03A
:1022E00047C0FE2CEE2009F4B4CF561330C049137A
:1022F0002EC02091ED0120FD21C0822F82958F708C
:10230000482F50E041155105C9F0F80125834F30A1
:10231000510541F08F5F982F9295907F822F8F709B
:10232000892B8583C8010E94190F86E0F801A8EE69
:10233000B1E001900D928A95E1F742C086E0F80184
:10234000A8EEB1E001900D928A95E1F75EC04D874D
:102350005E878D859E850E94870F811163CF809156
:10236000ED0181608093ED01C8010E94190F4DC0FD
:102370007A2DB98AA88A6E2D89890E948C0F86E0F1
:10238000F60111928A95E9F71BC0EE2009F461CF9E
:102390004D875E878D859E850E94870FF82E882346
:1023A00009F457CF86E0F801A8EEB1E001900D9254
:1023B0008A95E1F788EE91E00E94BA0B0E94DA0F4D
:1023C0000E94CC0F22C04D875E878D859E850E941E
:1023D000EC14292F22952F70223028F49F7039F0A9
:1023E000811105C00BC0243028F49F7049F4805E31
:1023F000883020F0C8010E94190F9F2CF92C05C0CD
:10240000F8019581907F99F7F9CF8F2D61960FB6DE
:10241000F894DEBF0FBECDBFDF91CF911F910F911A
:10242000FF90EF90DF90CF90BF90AF909F90089576
:102430001F93CF93DF93CDB7DEB72C970FB6F894E9
:10244000DEBF0FBECDBF4F83588769877A878B87E2
:102450009C87CE0107960E9446108823D1F09F8169
:1024600088852A853B85232B31F08F3F31F481E02D
:102470009F3F19F403C081E001C080E080FD47C0A8
:102480004F81588569857A858B859C850E949B0F35
:102490003EC086E0FE013796DE01119601900D9256
:1024A0008A95E1F7FF81E8856A857B85611571056D
:1024B00031F0EF3F31F481E0FF3F19F403C081E0D8
:1024C00001C080E080FD23C02091B70130E0C90148
:1024D0000196877099274091B60150E084179507BF
:1024E000F1F1F983EA837D836C8396E0929FD001BA
:1024F000939FB00D1124A854BE4FFE013196019058
:102500000D929A95E1F78093B7010E94AB0F16E008
:102510008091B6019091B701891771F1189FC001A0
:10252000112488549E4F0E944610882329F1E0917F
:10253000B6011E9FF0011124E854FE4F40815181E5
:1025400062817381848195810E949B0F8091B60185
:1025500090E00196877099278093B601D9CF0E94A9
:102560005F0F1092B7011092B601E8EEF1E086E03D
:10257000DF011D928A95E9F72C960FB6F894DEBF1D
:102580000FBECDBFDF91CF911F910895EF92FF92C3
:102590000F931F93CF93DF938C01892B09F46CC0A9
:1025A000F12CEE24E394E8012196F801849184371C
:1025B00040F4843008F051C0813081F0823019F14C
:1025C0005BC0853709F444C0A8F19CE7980F9037A9
:1025D00008F052C08F770E94620C41C00E5F1F4FFF
:1025E000FE01849190E2980F983050F48770FE2D90
:1025F00001C0FF0F8A95EAF78F2F0E944E1514C075
:102600000E94C00B2DC00E5F1F4FFE01849190E20F
:10261000980F983060F48770FE2D01C0FF0F8A95E7
:10262000EAF78F2F0E9454150E94791519C00E9455
:10263000620C16C00E5F1F4FFE01C491CC2381F0C7
:102640008FE99FE00197F1F700C00000C150F6CF7D
:102650000E5F1F4FFE01F49003C00E94C00B8E015D
:102660008F2D882309F49FCFEFE9FFE03197F1F731
:1026700000C000008150F5CFDF91CF911F910F91E5
:10268000FF90EF900895089508950C9444130C94CE
:1026900045130E94471360931502709316028093AE
:1026A0001702909318020C94490F0C9449130F933E
:1026B0001F9300911502109116022091170230917C
:1026C0001802602B712B822B932B1F910F910C946E
:1026D00049130F931F930091150210911602209138
:1026E00017023091180260237123822393231F91D4
:1026F0000F910C9449130F931F93009115021091A1
:102700001602209117023091180260277127822744
:1027100093271F910F910C9449130C9444130E941A
:102720008D136093110270931202809313029093A1
:1027300014020C94490F60E070E0CB010C948F13ED
:102740000F931F9341E050E060E070E08A019B012D
:1027500004C0000F111F221F331F8A95D2F7C90131
:10276000B8011F910F910C948F130F931F9341E0A9
:1027700050E060E070E004C0440F551F661F771FF3
:102780008A95D2F78091110290911202A0911302C2
:10279000B09114028A019B01082B192B2A2B3B2B89
:1027A000C901B8011F910F910C948F130F931F93C0
:1027B00041E050E060E070E004C0440F551F661F28
:1027C000771F8A95D2F740955095609570958091C6
:1027D000110290911202A0911302B09114028A0189
:1027E0009B01082319232A233B23C901B8011F9108
:1027F0000F910C948F130F931F9341E050E060E012
:1028000070E004C0440F551F661F771F8A95D2F7EA
:102810008091110290911202A0911302B0911402C2
:102820008A019B01082719272A273B27C901B801DC
:102830001F910F910C948F130F931F93009111020E
:10284000109112022091130230911402602B712B0F
:10285000822B932B1F910F910C948F130F931F9327
:102860000091110210911202209113023091140272
:1028700060237123822393231F910F910C948F1354
:102880000F931F93009111021091120220911302D5
:102890003091140260277127822793271F910F918F
:1028A0000C948F13089527E0929F800D1124E82F38
:1028B000E695E695E695877051E001C0550F8A953B
:1028C000EAF785E0E89FF0011124E251FE4F20E095
:1028D00030E070E04081CB01022E02C096958795D2
:1028E0000A94E2F781708195842785238427819358
:1028F0002F5F3F4F2530310569F7089527E0929FFC
:10290000800D1124682F669566956695982F9770AF
:1029100085E0689FB001112440E050E080E0FB01B9
:10292000E40FF51FE251FE4F208130E0092E02C076
:10293000369527950A94E2F721703327042E01C0BB
:10294000220F0A94EAF7822B4F5F5F4F4530510503
:1029500031F70895BF92CF92DF92EF92FF920F93DB
:102960001F93CF93DF938C01C0901102D09012027D
:10297000E0901302F09014028091150290911602DB
:10298000A0911702B0911802C82AD92AEA2AFB2A74
:10299000CFE1D0E0D701C6010C2E04C0B695A795B3
:1029A000979587950A94D2F780FD04C0219790F7F8
:1029B000B12C07C0BC2EB8018C2F0E94F4020197E5
:1029C000A9F38B2DDF91CF911F910F91FF90EF9085
:1029D000DF90CF90BF900895CF93DF93EC010E94DA
:1029E000AA14BE010E94F402DF91CF9108951F93B3
:1029F000CF93DF93EB019091B501992321F0CB01A7
:102A00000E94EC1413C0882349F0CB010E94AA1441
:102A1000182F682FCE010E94531404C0CB010E94CE
:102A20007E14182FBE01812F0E94F402DF91CF91F6
:102A30001F91089580911902859585958595089532
:102A4000809119028770089590911902977081E022
:102A500009F480E00895809125020895909125025F
:102A6000892B8093250208958095909125028923D2
:102A700080932502089510922502089590912402D2
:102A8000892B8093240208958095909124028923B4
:102A900080932402089510922402089590912302B5
:102AA000892B809323020895809590912302892396
:102AB00080932302089510922302089580911A02B0
:102AC000089508950C9461150C94621590911A0262
:102AD000981721F080931A020C9464150895809140
:102AE0001A02882329F010921A0280E00C946415CF
:102AF0000895E0910901F0910A01809125028083F7
:102B0000E0910901F0910A01908180912402892BC2
:102B10008083E0910901F0910A0190818091230264
:102B2000892B808380911A02882381F0E09109012A
:102B3000F0910A019081892B808380910901909105
:102B40000A010E948C1681110E946F158091090163
:102B500090910A010C94720A0C94611598E0899F77
:102B600090011124262B209319020E94B513809105
:102B700019028595859585950C94AC1510921902CE
:102B800080E00C94AC1520911902809582238093EB
:102B90001902982F977079F430E0482F082E000C16
:102BA000550B2417350739F08595859585950E9435
:102BB000D6130C94BE15089580E0089580E090E04F
:102BC0000E94D41E21E08B3E9E4F09F020E0822F10
:102BD000089582E090E00C94CC1E83E090E00C9489
:102BE000CC1ECF9384E090E00E94CC1EC82F81E2DF
:102BF00090E00E94CC1E2C2F30E0A901582BCA0176
:102C0000CF910895CF93C92F682F84E090E00E9460
:102C1000DA1E6C2F81E290E0CF910C94DA1EAB01AA
:102C2000BC018FE090E00C94EC1EAB01BC0183E191
:102C300090E00C94EC1E60E070E0CB010C94151653
:102C400060E070E0CB010E940F160C941B166BEE37
:102C50007EEF80E090E00E94F81E60E082E090E06D
:102C60000E94DA1E60E083E090E00E94DA1E10927B
:102C7000150210921602109217021092180260E0CC
:102C800084E090E00E94DA1E60E081E290E00E9421
:102C9000DA1E60E085E090E00E94DA1E60E086E0E7
:102CA00090E00E94DA1E6FEF87E090E00E94DA1E4B
:102CB00040E050E0BA0188E090E00E94EC1E60E045
:102CC0008DE090E00E94DA1E40E050E0BA0188E119
:102CD00090E00E94EC1E60E087E190E00E94DA1E26
:102CE00040E050E0BA018CE190E00E94EC1E60E010
:102CF00080E290E00E94DA1E40E050E0BA0188E1F4
:102D000090E00E94EC1E0C9420160C942716682F5D
:102D10008EE090E00C94DA1EFC01329697E080E0A1
:102D2000915029F021912223D9F38F5FF9CF089593
:102D3000662349F0FC01329608962191621729F02A
:102D4000E817F907D1F780E0089581E008959C0124
:102D5000FC0132969FEF80E04191461789F09F3F3A
:102D600019F4411101C0982F8F5F8630A9F79F3F5A
:102D700039F0F901E90FF11D97FDFA956283089585
:102D800008959C012A5F3F4FFC014281461301C018
:102D90001282019682179307B9F708950C94A7162B
:102DA0000C94C116029626E0FC0111922A95E9F7CF
:102DB000089508950C94D9160C94D916CF930E94B7
:102DC000DC160E94B3050E94DA16C0E08C2F0E9428
:102DD000DD04811104C0CF5FC830C1F701C081E0BC
:102DE000CF9108950C94D9160C94F216809152024A
:102DF000843049F10E94F41680E00E94CC021092C7
:102E0000270220E488E190E00FB6F894A89580931B
:102E100060000FBE2093600083B7817F846083BF12
:102E200083B7816083BF7894889583B78E7F83BF93
:102E30000FB6F894A8958091600088618093600037
:102E4000109260000FBE08950C94D9160E945F0F77
:102E50000E94660A0E94CC020C9424171F920F92C3
:102E60000FB60F9211248F939F93AF93BF938091CE
:102E70002702811113C08091440290914502A091D4
:102E80004602B09147024196A11DB11D80934402B4
:102E900090934502A0934602B0934702BF91AF9131
:102EA0009F918F910F900FBE0F901F90189582E009
:102EB00084BD93E095BD9AEF97BD80936E00089511
:102EC0002FB7F8948091440290914502A091460258
:102ED000B09147022FBF08952FB7F8946091440234
:102EE0007091450280914602909147022FBF08954C
:102EF0009C014FB7F8948091440290914502A091B3
:102F00004602B09147024FBF821B930B08957894FD
:102F10001F920F920FB60F9211248F939F93AF932E
:102F2000BF938091440290914502A0914602B091D6
:102F300047020196A11DB11D809344029093450262
:102F4000A0934602B0934702BF91AF919F918F919A
:102F50000F900FBE0F901F9018951092480210927C
:102F6000490210924A0210924B020895CF92DF92CA
:102F7000EF92FF926B017C010E94750681110EC0D9
:102F80000E946C17C61AD70AE80AF90AC0924802CA
:102F9000D0924902E0924A02F0924B02FF90EF90E9
:102FA000DF90CF9008950F931F930E94750688239A
:102FB00021F01F910F910C946C170E946C170091D7
:102FC00048021091490220914A0230914B02600F51
:102FD000711F821F931F1F910F91089587E797E735
:102FE00090930108809300089AE088E10FB6F89466
:102FF000A895809360000FBE90936000FFCF9093E0
:1030000089018093880108950E94DE15811102C014
:103010000E9485160E94E915809326020E94F115F0
:1030200090934D0280934C020E94ED15682F70E042
:1030300080E090E00E94551360911102709112029D
:1030400080911302909114020C948D1380913002A0
:1030500008950895CF93DF9300D01F92CDB7DEB7C8
:1030600090915202943019F589837B836A8382E0C0
:103070008093E9008FEF9091E800815095FD06C0A4
:1030800095ED9A95F1F700008111F5CF8091E80058
:1030900085FF0DC040E050E063E070E0CE01019696
:1030A0000E94281A8091E8008E778093E8000F90A4
:1030B0000F900F90DF91CF910895BC0184E00C94A4
:1030C0002A18BC0183E00C942A18CF93DF9321E0E7
:1030D0002093E9002FEF3091E800215035FD06C024
:1030E00035ED3A95F1F700002111F5CF2091E80078
:1030F00025FF14C0EC0140E050E068E070E00E9461
:10310000281A8091E8008E778093E80088E0FE011D
:10311000A8E2B2E001900D928A95E1F7DF91CF919C
:10312000089580915102811109C00E94B91B0E942B
:10313000161C8091E20084608093E2000895109252
:103140005102089508950895089542E061EC81E0E8
:103150000E94321B42E261EC82E00C94321B8091AF
:103160005402833009F460C030F4813071F0823051
:1031700009F499C008958A3009F485C08B3009F4A8
:103180006BC0893009F0A7C020C080915302813AFA
:1031900009F0A1C08091E800877F8093E8008091CA
:1031A000570290915802892B21F468E088E292E05E
:1031B00003C060E080E090E070E00E94731A8091AC
:1031C000E8008B778093E800089580915302813264
:1031D00009F081C08091570290915802029708F03F
:1031E0007AC08091E800877F8093E8008091E800B2
:1031F00082FD05C0809152028111F8CF6CC02091F0
:10320000F3008091F20090E0922B029729F48091D4
:10321000F1008B7F813021F48091F10080933002A6
:103220008091E8008B7753C080915302813A09F076
:1032300052C08091570290915802892B09F04BC0DF
:103240008091E800877F8093E8008091E80080FF0C
:10325000FCCF8091150136C0809153028132D9F59F
:103260008091570290915802892BA9F58091E8002E
:10327000877F8093E8000E94671B809155028093AE
:1032800015010C945F0F80915302813221F58091DA
:10329000E800877F8093E8000E94671B80915602B8
:1032A00080933102089580915302813AA1F4809174
:1032B000E800877F8093E8008091E80080FFFCCFE2
:1032C000809131028093F1008091E8008E778093A5
:1032D000E8000C94671B089584B7877F84BF0FB6FE
:1032E000F894A895809160008861809360001092A6
:1032F00060000FBE90E080E80FB6F8948093610004
:10330000909361000FBE0E94D20A0E94B91B0E94D6
:10331000161C8091E20084608093E20078940E9401
:10332000AB1E0E94DC0A8BE091E00E94610A809152
:1033300052028530A9F480915202853079F40E94BE
:10334000F616809150028823B1F30E94DE1688237E
:1033500091F30E94121A0E945F0FEDCF0E94261770
:103360000E94E60A0E94C60A0E94C50AE0CF0C9499
:10337000B919292F332723303105C9F060F42130E2
:10338000310581F02230310509F044C08BE390E033
:103390002AEE32E043C021323105E1F0223231051C
:1033A00049F138C082E190E025E233E037C0992747
:1033B0008130910549F028F0029761F5ECEBF2E0DD
:1033C00005C0E6EEF2E002C0E8EDF2E0849190E0A4
:1033D0009F0124C06115710541F061307105D1F480
:1033E00089E090E025E133E019C089E090E02CEF1E
:1033F00032E014C06115710541F06130710551F47E
:1034000082E390E027E333E009C080E490E029E61E
:1034100033E004C080E090E020E030E0FA01318346
:103420002083089580E189BD82E189BD09B400FE51
:10343000FDCF8091D8008F7D8093D8008091E000EF
:1034400082608093E0008091E00081FDFCCF0895D0
:10345000CF92DF92EF92FF920F931F93CF93DF9360
:10346000EC018B017A010E94861B811133C0E114AB
:10347000F10439F0F70180819181081B190BC80F05
:10348000D91FC12CD12C0115110519F18091E8002B
:1034900085FD16C08091E8008E778093E800E114E6
:1034A000F10449F0F70180819181C80ED91ED182C3
:1034B000C08285E00FC00E94861B882321F30AC0CA
:1034C00089918093F10001501109FFEFCF1ADF0AB3
:1034D000DACF80E0DF91CF911F910F91FF90EF90B5
:1034E000DF90CF9008952091590230915A0226170B
:1034F000370748F06115710539F42091E8002E77FF
:103500002093E80001C0B901FC0120E061157105BC
:1035100079F1809152028823F1F18530F1F18091A7
:10352000E80083FD3CC08091E80082FD2EC08091C0
:10353000E80080FFEBCF2091F3008091F20090E053
:10354000922B6115710551F08830910538F4219165
:103550002093F100615071090196F3CF21E00897A3
:1035600009F020E08091E8008E778093E800CECFCC
:103570002111CFCF0AC080915202882361F085309B
:1035800061F08091E80083FD0AC08091E80082FF2D
:10359000F2CF80E0089582E0089583E0089581E00D
:1035A00008952091590230915A022617370748F0A2
:1035B0006115710539F42091E8002E772093E80019
:1035C00001C0B901FC0120E06115710591F1809104
:1035D0005202882309F440C0853009F43FC080912D
:1035E000E80083FD3DC08091E80082FD2FC08091FE
:1035F000E80080FFE9CF2091F3008091F20090E095
:10360000922B6115710559F08830910540F4249191
:103610002093F1003196615071090196F2CF21E0BB
:10362000089709F020E08091E8008E778093E80009
:10363000CBCF2111CCCF0AC080915202882361F0F8
:10364000853061F08091E80083FD0AC08091E80038
:1036500082FFF2CF80E0089582E0089583E008952C
:1036600081E00895982F973068F59093E9009817B6
:1036700039F07091EC002091ED005091F00003C002
:10368000242F762F50E021FD02C09F5FECCF3091B8
:10369000EB003E7F3093EB003091ED003D7F3093A7
:1036A000ED003091EB0031603093EB007093EC0053
:1036B0002093ED005093F0002091EE0027FDE5CF20
:1036C00080E008958F708093E90081E008958091F3
:1036D000530287FF11C08091E80082FD05C08091F0
:1036E00052028111F8CF11C08091E8008B770BC096
:1036F00080915202882349F08091E80080FFF8CF42
:103700008091E8008E778093E80008952091E4008E
:103710003091E50095E64091EC00842F817040FFE8
:1037200023C08091E80080FD1DC080915202882353
:1037300099F0853099F08091EB0085FD11C04091A2
:10374000E4005091E5002417350729F3915011F05A
:103750009A01E1CF84E0089582E0089583E008951E
:1037600081E0089580E008954091E80042FFDDCFB8
:1037700008950E94271C0E942F1CE0EEF0E080813B
:1037800081608083E8EDF0E080818F77808319BCD1
:10379000A7EDB0E08C918E7F8C9380818F7E8083AB
:1037A0001092510208950F931F93CF93DF930E94BD
:1037B000271C0E942F1CC8EDD0E088818F7788835A
:1037C00088818068888388818F7D888319BC109266
:1037D000520210924E021092500210924F0200EECE
:1037E00010E0F80180818B7F8083888181608883ED
:1037F00042E060E080E00E94321BE1EEF0E0808178
:103800008E7F8083E2EEF0E0808181608083808122
:1038100088608083F80180818E7F808388818061C9
:103820008883DF91CF911F910F910895E8EDF0E02B
:1038300080818F7E8083E7EDF0E0808181608083EE
:1038400084E082BF81E0809351020C94D31BE8EDA9
:10385000F0E080818E7F80831092E20008951092C4
:10386000DA001092E10008951F920F920FB60F92A6
:1038700011242F933F934F935F936F937F938F9375
:103880009F93AF93BF93EF93FF938091E10082FFEB
:103890000BC08091E20082FF07C08091E1008B7F26
:1038A0008093E1000E94AA1E8091DA0080FF1FC071
:1038B0008091D80080FF1BC08091DA008E7F8093BA
:1038C000DA008091D90080FF0DC080E189BD82E1DE
:1038D00089BD09B400FEFDCF81E0809352020E94B1
:1038E000911805C019BC109252020E949F18809135
:1038F000E10080FF19C08091E20080FF15C0809137
:10390000E2008E7F8093E2008091E20080618093EC
:10391000E2008091D80080628093D80019BC85E0D5
:10392000809352020E94A3188091E10084FF30C06E
:103930008091E20084FF2CC080E189BD82E189BDD5
:1039400009B400FEFDCF8091D8008F7D8093D80010
:103950008091E1008F7E8093E1008091E2008F7E74
:103960008093E2008091E20081608093E200809188
:103970004E02882311F084E007C08091E30087FDA8
:1039800002C081E001C083E0809352020E94A4182B
:103990008091E10083FF29C08091E20083FF25C070
:1039A0008091E100877F8093E10082E08093520262
:1039B00010924E028091E1008E7F8093E100809111
:1039C000E2008E7F8093E2008091E200806180932C
:1039D000E20042E060E080E00E94321B8091F00053
:1039E00088608093F0000E94A218FF91EF91BF9130
:1039F000AF919F918F917F916F915F914F913F9187
:103A00002F910F900FBE0F901F9018951F920F923D
:103A10000FB60F9211242F933F934F935F936F93A1
:103A20007F938F939F93AF93BF93CF93DF93EF9346
:103A3000FF93C091E900CF708091EC00D82FD17036
:103A400080FDD0E81092E9008091F000877F80939C
:103A5000F00078940E944A1D1092E9008091F000D5
:103A600088608093F000CD2BCF70C093E900FF9168
:103A7000EF91DF91CF91BF91AF919F918F917F9106
:103A80006F915F914F913F912F910F900FBE0F90CB
:103A90001F9018951F93CF93DF93CDB7DEB7AA97EA
:103AA0000FB6F894DEBF0FBECDBFE3E5F2E0809124
:103AB000F100819322E0EB35F207C9F70E94AF18BD
:103AC0008091E80083FF2EC18091530290915402AF
:103AD000492F50E04A30510508F024C1FA01EC5852
:103AE000FF4F0C94C61E803821F0823809F01AC1AD
:103AF00008C080914F0290915002992389F0826012
:103B00000FC0809157028F70873008F00BC18093EF
:103B1000E9008091EB0085FB882780F91092E9008D
:103B20009091E800977F9093E8008093F1001092C5
:103B3000F100D1C0282F2D7F09F0F4C0882319F09F
:103B4000823061F0EFC080915502813009F0EAC007
:103B5000933009F080E0809350022EC0809155028E
:103B600081112AC0809157028F702FEF280F2630C5
:103B700008F0D8C08093E9002091EB0020FF1CC022
:103B8000933021F48091EB00806214C09091EB009F
:103B900090619093EB0021E030E0A90102C0440F56
:103BA000551F8A95E2F74093EA001092EA0080914F
:103BB000EB0088608093EB001092E9008091E800B0
:103BC000877F8093E8000E94671BACC08111AAC068
:103BD000109155021F778091E3008078812B8093AC
:103BE000E3008091E800877F8093E8000E94671BD4
:103BF0008091E80080FFFCCF8091E3008068809393
:103C0000E300111102C082E001C083E08093520200
:103C100089C08058823008F085C08091550290910B
:103C200056028C3D53E0950779F583E08A838AE25A
:103C300089834FB7F894DE01139620E03EE051E20D
:103C4000E32FF0E050935700E49120FF03C0E2958A
:103C5000EF703F5FEF708E2F90E0EA3010F0C79664
:103C600001C0C0968D939D932F5F243149F74FBFBC
:103C70008091E800877F8093E8006AE270E0CE01DF
:103C800001960E94731A16C06091570270915802F3
:103C9000AE014F5F5F4F0E94B719BC01892B09F439
:103CA00041C09091E800977F9093E80089819A81C4
:103CB0000E94D11A8091E8008B778093E80032C08F
:103CC000803881F58091E800877F8093E8008091BB
:103CD0004E028093F1008091E8008E7772CF8111BF
:103CE00021C0809155029091560299270297D4F4F1
:103CF0008091E800877F8093E8008091550280934F
:103D00004E020E94671B80914E02811106C0809175
:103D1000E30087FD02C081E001C084E0809352028D
:103D20000E94A5188091E80083FF0AC08091E800F6
:103D3000877F8093E8008091EB0080628093EB00A6
:103D4000AA960FB6F894DEBF0FBECDBFDF91CF911C
:103D50001F9108950895CF93809152028823A1F076
:103D6000C091E900CF709091EC00892F817090FD97
:103D700080E8C82B1092E9008091E80083FD0E9442
:103D80004A1DCF70C093E900CF910895EE0FFF1F39
:103D90000590F491E02D0994F999FECF92BD81BD73
:103DA000F89A992780B50895A8E1B0E042E050E084
:103DB0000C94001F262FF999FECF92BD81BDF89A71
:103DC000019700B4021639F01FBA20BD0FB6F8945F
:103DD000FA9AF99A0FBE08950396272F0E94DB1EC8
:103DE0000E94DA1E252F0E94DB1E242F0C94DB1E5E
:103DF0000196272F0E94DB1E0C94DA1EDC01CB01FA
:103E0000FC01F999FECF06C0F2BDE1BDF89A3196EA
:103E100000B40D9241505040B8F70895F894FFCF88
:103E20000193010494010498011B022618651829C6
:103E30001861185D1801E200E900EA00B500B6005B
:103E4000B700CD008301CC008A01920194012102C8
:103E5000230224022502260227022A02B300B4000C
:103E60006F007000818283F4F5F6F731333297C624
:103E7000343500000000E200E900EA00B500B600B9
:103E8000B700CD008301CC008A0192019401210288
:103E9000230224022502260227022A02B300B400CC
:083EA0006F00700081828300B5
:00000001FF
